:03000000020AFEF3
:0C0AFE00787FE4F6D8FD758166020B4598
:100C5F00566F6C746167653A25302E3030326656A8
:0E0C6F000043757272656E743A25646D410023
:100C7D00012600022200000245000004470000008A
:010C8D000066
:100C2100E4FDFCC3ED9FEC9E5015E4FBFA0BBB0009
:0F0C3100010AEB647B4A70F50DBD00010C80E4F5
:010C40002291
:070BB2007E00120C217F30D0
:100BB900C295C2948FA0C296D296D3EF9402748044
:100BC900948050047F0280027F017E00120C212252
:100C8F00C295D2948FA0C296D2967F017E00020C9D
:010C9F002133
:060B8A008B4E8A4F8950DA
:100B9000E4F551AB4EAA4FA95085518275830012DE
:100BA000051BFFFD3395E04D6007120C8F0551804A
:010BB000E262
:010BB1002221
:060C00008B4B8A4C894D6C
:100C0600EF640170047F8080027FC0EF2D14FF1215
:0B0C16000BB9AB4BAA4CA94D020B8A96
:100C41007F30120BB97F05120BB27F01120BB27FFD
:0E0C510038120BB97F01120BB97F0C020BB9E0
:100A0D00120C41758901309207D29375260180052C
:100A1D00C293E4F526758CFCE4F58AC2B4D2B07F9E
:100A2D0001FE120C21C2B0D28C308DFDC28DC28C54
:100A3D00D2B4758CFCE4F58AD28C20B1FDC28CAF9A
:100A4D008C7545008F46AF8A7522008F23758CFCFF
:100A5D00E4F58AC28DE5462404FFEF7F00FEEF2505
:100A6D0023F525E5223EF524FCAD251201AE7B00D4
:100A7D007AC07980784412010CE4FBFA79A07840B1
:100A8D001200038F4A8E498D488C47E5266401700C
:100A9D0014754EFF754F0C75505F8F548E538D52DC
:100AAD008C51FB802E754EFF754F0C755070E4FB0D
:100ABD00FA79A07840AF4AAE49AD48AC4712010C67
:100ACD00E4FBFA797A78441200031201E78E518F14
:100ADD00527B007A0079271205FA7B007A0079277C
:100AED007D017F01120C007F647E00120C21020A31
:010AFD0013E5
:10000300EC4D6011E8497017ED33EC3304600DE4F7
:10001300FCFFFEFD22E933E8330470F802025312B9
:10002300021E58046009E4CC2481500628500902BA
:10003300025D28400302025AC0E0EB4A7044B980D3
:1000430006D0E0FB020249EF4E701CBD8008EBFFB7
:10005300EAFEE9FD80EBE98DF0A4FEE5F00200EC99
:10006300E9CDF9EAFEEBFFEF89F0A4FCE5F0CE89D8
:10007300F0A42EFFE435F0CD89F0A42DFEE435F095
:100083008067EF4E7005BD80D780C3EF8BF0A4ACC3
:10009300F0EE8BF0A42CFCE435F0F8EF8AF0A42CFE
:1000A300E5F038FCE433CB8DF0A42CFCE5F03BF811
:1000B300EE8AF0A42CFCE5F038F8E433CF89F0A401
:1000C3002CFCE5F038CF3400CE89F0A42FFFE5F007
:1000D3003EFEE433C98DF0A42EFEE5F039CD8AF05F
:1000E300A42FFFE5F03EFEE43DFD33D0E0FB5007D7
:1000F3000BBB000F02025DEC2CFCEF33FFEE33FE73
:06010300ED33FD020235A0
:1001090002025DEC5D046005E859047003020253C4
:1001190012021E580460F6EC4860F2EC7004FDFE11
:10012900FF22C860DB2481C85009C39860025006C9
:1001390002025A9850CAF582E9294B4A7005AB82E6
:1001490002024975F0007C1A7880C3EF9BEE9AEDA4
:1001590099400DC3EF9BFFEE9AFEED99FDE842F041
:10016900DC23ACF0D0E0FFD0E0FED0E0FDAB822094
:10017900E7101BEB60BAEC2CFCEF33FFEE33FEED1E
:1001890033FD020235E803F830E705C0F075F000E9
:10019900EF2FFFEE33FEED33FD40B830E7C280AA02
:1001A90075F020800E75F010800575F0087D007ED1
:1001B900007F003392D530D50312055AEC33401035
:1001C900EF33FFEE33FEED33FDEC33FCD5F0ED22DA
:0E01D900E5F0247EA2D513CC92E7CDCEFF2216
:1001E700EDD2E7CD33EC3392D524814006E4FFFE10
:1001F700FDFC22FCE4CFCECDCC24E0501174FF806F
:10020700EDC3CC13CCCD13CDCE13CECF13CF04700B
:07021700F030D5DE02055AAC
:10059E00E562244EF8E6056222784B300702784E6B
:1005AE00E475F0011205680205022000EB7F2ED2E1
:1005BE00008018EF540F2490D43440D4FF30040B35
:1005CE00EF24BFB41A0050032461FFE563600215E7
:1005DE00630566E5667002056530070D784BE475B8
:1005EE00F001120568EF020548020BD97403D20719
:1005FE008003E4C207F5628B4B8A4C894DE4F563A8
:10060E00F565F566E56360077F201205D980F575FF
:10061E0064FFC201C200C202C203C205C206C20802
:10062E001205A7FF700D3007057F001205EAAF66B1
:10063E00AE6522B4255FC2D5C2041205A7FF24D031
:10064E00B40A00501A75F00A786330D50508B6FF63
:10065E000106C6A426F620D5047002D20380D92442
:10066E00CFB41A00EF5004C2E5D2040208D7D2016B
:10067E0080C6D20080C0D20280BCD2D580BAD2054C
:10068E0080B47F201205D92002077401B5630040A3
:10069E00F112059EFF1205D9020612D208D206806B
:1006AE009512059EFB12059EFA12059EF94A4B7095
:1006BE000679CE7A097BFF20022EE563602A7E0042
:1006CE008E8275830012051B60060EEE656470F057
:1006DE00C2D5EBC0E0EAC0E0E9C0E0EE120937D0C7
:1006EE00E0F9D0E0FAD0E0FB120502FF60AAEBC001
:1006FE00E0EAC0E0E9C0E01205D9D0E02401F9D06B
:10070E00E03400FAD0E0FBE5640460DCD564D98007
:10071E0087D20280A212091A60F7E56470010412F2
:10072E000268A964600DE564600914F5641209C1DC
:10073E00EF60F3EA30E702F404C3995077EAF42548
:10074E00640430E701E404F564800D12091A60C1F7
:10075E00EA05642564120268EA7861F630E701E47E
:10076E00256404D5640420050114120937E4C0E0A1
:10077E001209C17861E6601320E70714F61205C16D
:10078E00802204F6D0E014C0E07F001205C1E564BB
:10079E0060071205B81564800B3005031205B8D03A
:1007AE00E0020612D0E00480C512091A60A0E564CA
:1007BE00041202687861EAF6E5642005026001041D
:0507CE002404120937AC
:1007D30074FF04C0E01209C11205C1E564200502DB
:1007E30060031205B8D0E0B564E87F451205CB7805
:1007F30061E67F2B30E7047F2DF404C0E01205D9B6
:10080300D0E075F00A84C0F01205C2D0E01205C230
:10081300020612791080027908C206C2088008D243
:10082300D5790A8004790AC2D5E564047002F564B7
:10083300E4FAFDFEFF12059EFC7B0820011312055E
:100843009EFD7B1030000A12059EFE12059EFF7B63
:1008530020EC3382D592D55013C3E43000069FFFBA
:10086300E49EFEE42001039DFDE49CFCE4CBF8C27E
:1008730001EC700CCFCECDCCE824F8F870F38017E0
:10088300C3EF33FFEE33FEED33FDEC33FCEB33FB11
:10089300994002FB0FD8E9EB300105F8D0E0C448DA
:1008A300B201C0E00AEC4D4E4F78207B0070C2EAE3
:1008B300B5640040BCC0E0120939D0F0D0E020019B
:1008C30004C4C0E0C4B201C0F01205C2D0F0D5F038
:1008D300EB02061212057806AF5308165806804C31
:1008E300067C42081A4F0822440822490695430809
:1008F300285507594607B74507234709EE5006848D
:100903002D06882E06AB2B068C2306A92009D72A91
:10091300064448000006A3E564B4FF0375640612A9
:10092300059EFC12059EFD12059EFE12059EFF7894
:100933005A020297790AA2D5200314300509B91087
:10094300020404B9080104A2D520060250010420C0
:1009530002689202B563005034C0E07F203003196F
:100963007F30A20272067205500F120990C202C2B2
:1009730006C205C2087F30800F300503E9C0E012CC
:1009830005D9300503D0E0F9D0E0B563CC300517C5
:100993007F30B9100C1205D97F583004077F788057
:1009A30003B908031205D93002057F2D0205D97F4B
:1009B300202008F87F2B2006F322920280CF7F00AD
:1009C300B407005005245AF8E6FF22286E756C6CB4
:1009D3002900D20112059E3001F8C201786330D597
:1009E3000108F60206442D5043495812059E24037C
:1009F300B405004001E49009E9931205CA743A1260
:0A0A030005CAD20375630402081649
:10021E00E9D2E7C933E833F892D5EDD2E7CD33EC26
:07022E0033FC5002B2D5229F
:10023500EC30E7100FBF000C0EBE00080DBD00042A
:100245000BEB6014A2D5EB13FCED92E7FD2274FFD6
:10025500FCFDFEFF22E480F8A2D574FF13FC7D802F
:03026500E480EF43
:10026800F920E72824F950037907E4F42402FB185D
:10027800DBFDE624FB5014E9600DE4F618E604F60D
:0F028800B40A08E4F6D9F57401F60A22C2D522A9
:10029700ED33EC3392D5FA602AB4FF33EDC2E77B36
:1002A700FF60067A0279BCE4227A0279C520D50478
:1002B7007A0279C0224E614E002B494E46002D49E5
:1002C7004E4600E47A08F608DAFC7B00740722E859
:1002D700C0E0ECC0E0EDC0E0EEC0E0EFC0E0EA75E2
:1002E700F010A4CAABF075F04DA42BFBE435F0FC7D
:1002F700EA2410FAEB34C5FBEC34D9FCEDC2E7FF76
:1003070075F056A4F42411C5F0F434C58FF0A42A6F
:10031700E5F03BE43CF620E7141204C2D0E0FFD03E
:10032700E0FED0E0FDD0E0FC12010C8014F40412D2
:1003370004C2D0E0FFD0E0FED0E0FDD0E0FC120028
:1003470003D0E0F8E6FAEDD2E7CD33EC332482FBB5
:10035700E4C3CF33CFCE33CECD33CD33DBF37B07FF
:1003670075F00A846004F6081B0AE5F0F6088FF0BA
:10037700740AA4FFACF08EF0740AA42CFEACF05003
:10038700010C8DF0740AA42CFDE435F0F608DBDED1
:03039700740722C6
:10039A00020253E86480F8E933E83360110460F03C
:1003AA00ED33EC337009E8FCE9FDEAFEEBFF2204C9
:1003BA0060DED3EB9FEA9EE99DE8C2E78CF0C2F7C4
:1003CA0095F0400CE8CCF8E9CDF9EACEFAEBCFFB90
:1003DA0012021E85D0F05804700320D5B3E80470C9
:1003EA00075002B2D502025D92D5EC0460F7E4CC64
:1003FA00C0E0C398F8603B94186008400DD0E0FB59
:10040A00020235E4FBFAC9FC8028E830E406E4C9B4
:10041A00FBE4CAFCE830E305E4C9CACBFCE85407AC
:10042A006010F8C3E913F9EA13FAEB13FBEC13FCB7
:10043A00D8F130F52FC3E49CFCEF9BFFEE9AFEED5A
:10044A0099FDD0E0FBEF4E4D4C701222DB03020205
:10045A005AEC2CFCEF33FFEE33FEED33FDED30E7C3
:10046A00EB020235EF2BFFEE3AFEED39FDD0E0FB51
:10047A0050130BBB000302025DED13FDEE13FEEFFA
:08048A0013FFEC13FC02023524
:100492003F8000004120000042C80000447A000072
:1004A200461C400047C35000497424004B189680F4
:1004B2004CBEBC205A0E1BCA6753C21C749DC5AEEB
:1004C200FB60065407601C23231204F0EB543860CF
:1004D200091204DC1204EB120003ECF8EDF9EEFA57
:1004E200EFCB22EB1204EB80F1543803241C90046E
:1004F20092FE93FC0EEE93FD0EEE930ECE93FF2230
:100B0A00020A0DE493A3F8E493A34003F68001F2EA
:100B1A0008DFF48029E493A3F85407240CC8C333EC
:100B2A00C4540F4420C8834004F456800146F6DFBB
:100B3A00E4800B0102040810204080900C7DE47EC2
:100B4A00019360BCA3FF543F30E509541FFEE493B0
:100B5A00A360010ECF54C025E060A840B8E493A377
:100B6A00FAE493A3F8E493A3C8C582C8CAC583CAA2
:100B7A00F0A3C8C582C8CAC583CADFE9DEE780BE5A
:010C8E000065
:10050200BB010689828A83E0225002E722BBFE02F7
:09051200E32289828A83E493222A
:10051B00BB010CE58229F582E5833AF583E0225095
:10052B0006E92582F8E622BBFE06E92582F8E222DF
:0D053B00E58229F582E5833AF583E49322F9
:10054800BB010689828A83F0225002F722BBFE0192
:02055800F3228C
:0E055A00C3E49FFFE49EFEE49DFDE49CFC22B2
:10056800FAE6FB0808E6F925F0F618E6CA3AF62294
:10057800D083D082F8E4937012740193700DA3A312
:1005880093F8740193F5828883E473740293686026
:06059800EFA3A3A380DF26
:100BD900EFB40A07740D120BE4740A309811A8993E
:100BE900B8130CC2983098FDA899C298B811F6307C
:070BF90099FDC299F5992254
:00000001FF
